:100000004B28FF3FFF3FFF3F031383160711831267
:1000100012150C30970408000030031383128C1A59
:100020000130F1007108F0000800031383121A0870
:10003000A200981C1D28181218162208F0000800AB
:1000400000300313831698180130F1007108003A4C
:10005000031D2C2800002028831222089900080084
:10006000003003138312A0000800031383169816B0
:1000700090308312980083168717071383128C1E03
:1000800044281A08A6003E2808000313831295018D
:10009000171297120800302019308316990018158E
:1000A00035208230FB00FF30FA00FB0B58285B281C
:1000B000FA0B582855288730FA00FA0B5D28000003
:1000C00083168601831286018316880183128801B4
:1000D000F9308316870083121214F93083169200C8
:1000E00045200420A1010C20700803197D2815204B
:1000F0007008A1007008A2002020CA29061406304A
:10010000FC00FF30FB00FF30FA00FC0B88288F2832
:10011000FB0B8B288E28FA0B8B28882885281A3011
:10012000FB00FF30FA00FB0B96289928FA0B962863
:1001300093284230FA00FA0B9B280610F229861405
:100140000630FC00FF30FB00FF30FA00FC0BA92852
:10015000B028FB0BAC28AF28FA0BAC28A928A6289E
:100160001A30FB00FF30FA00FB0BB728BA28FA0B55
:10017000B728B4284230FA00FA0BBC288610F229BE
:1001800008170630FC00FF30FB00FF30FA00FC0BC4
:10019000CA28D128FB0BCD28D028FA0BCD28CA2895
:1001A000C7281A30FB00FF30FA00FB0BD828DB28E9
:1001B000FA0BD828D5284230FA00FA0BDD280813AC
:1001C000F22988170630FC00FF30FB00FF30FA00F0
:1001D000FC0BEB28F228FB0BEE28F128FA0BEE289B
:1001E000EB28E8281A30FB00FF30FA00FB0BF92857
:1001F000FC28FA0BF928F6284230FA00FA0BFE2800
:100200008813F22908160630FC00FF30FB00FF308F
:10021000FA00FC0B0C291329FB0B0F291229FA0BEE
:100220000F290C2909291A30FB00FF30FA00FB0BBB
:100230001A291D29FA0B1A2917294230FA00FA0B3C
:100240001F290812F22988160630FC00FF30FB0037
:10025000FF30FA00FC0B2D293429FB0B3029332900
:10026000FA0B30292D292A291A30FB00FF30FA0019
:10027000FB0B3B293E29FA0B3B2938294230FA0077
:10028000FA0B40298812F22908150630FC00FF30CD
:10029000FB00FF30FA00FC0B4E295529FB0B5129BE
:1002A0005429FA0B51294E294B291A30FB00FF30F3
:1002B000FA00FB0B5C295F29FA0B5C2959294230B3
:1002C000FA00FA0B61290811F22988150630FC00A2
:1002D000FF30FB00FF30FA00FC0B6F297629FB0B87
:1002E00072297529FA0B72296F296C291A30FB00C3
:1002F000FF30FA00FB0B7D298029FA0B7D297A2932
:100300004230FA00FA0B82298811F22908140630CB
:10031000FC00FF30FB00FF30FA00FC0B902997290E
:10032000FB0B93299629FA0B932990298D291A30D2
:10033000FB00FF30FA00FB0B9E29A129FA0B9E2936
:100340009B294230FA00FA0BA32908100615F2295E
:1003500088140630FC00FF30FB00FF30FA00FC0B75
:10036000B229B929FB0BB529B829FA0BB529B2294D
:10037000AF291A30FB00FF30FA00FB0BC029C3295C
:10038000FA0BC029BD294230FA00FA0BC5298810A2
:100390000611F2292108313A03197E282108713A01
:1003A00003199F282108323A0319C0282108773AF7
:1003B0000319E1282108653A031902292108333A73
:1003C000031923292108343A031944292108723AD0
:1003D0000319652921086F3A031986292108633A10
:1003E0000319A8297228F329FF3FFF3FFF3FFF3F72
:02400E00713F00
:00000001FF
